:100000000C9434000C9440000C943E000C943E0080
:100010000C943E000C943E000C943E000C943E0068
:100020000C943E000C943E000C943E000C943E0058
:100030000C943E000C943E000C943E000C943E0048
:100040000C943E000C943E000C943E000C943E0038
:100050000C943E000C943E000C943E000C943E0028
:100060000C943E000C943E0011241FBECFEFD4E050
:10007000DEBFCDBF0E946C000C9428020C940000DF
:100080001F920F920FB60F9211242F933F934F930D
:100090005F936F937F938F939F93AF93BF93EF93F0
:1000A000FF93F8940E94DA007894FF91EF91BF914A
:1000B000AF919F918F917F916F915F914F913F9100
:1000C0002F910F900FBE0F901F901895E89AE9E6B8
:1000D000F0E0808180830895CF9381E084B915B8E2
:1000E00090E080E80FB6F8948093610090936100EF
:1000F0000FBE0E9408020E94A5010E9466000E9495
:1001000020020E9459018823B9F0C1E08FE99FE0E5
:100110000197F1F700C0000080E00E94820185B1E4
:100120008C2785B99FE72AE186E0915020408040E6
:10013000E1F700C00000EACF80E090E0CF910895A1
:100140001F93CF93DF931F92CDB7DEB7182F0E9476
:10015000B20184EB0E94D801812F0E94E7010E9426
:10016000C30185EB0E94E70180E00E94F4018983CE
:100170000E94D00189810F90DF91CF911F91089546
:100180001F93CF93DF931F92CDB7DEB7182F6983EC
:100190000E94B20184EB0E94D801812F0E94E701E6
:1001A0006981862F0E94E7010F90DF91CF911F9107
:1001B0000C94D00180E00E94A0000E94190281E00E
:1001C0000E94A0008295807F0C94190260EC8EE55D
:1001D0000C94C0006FEC8EE50C94C000CF9363E6E6
:1001E00080E80E94C00087EE93E00197F1F700C01D
:1001F00000000E94E60061E08BE20E94C00068E01F
:100200008CE20E94C00061E08DE20E94C00060E0CC
:100210008EE20E94C00061E08FE20E94C00061E0B7
:1002200080E30E94C00062E081E30E94C00061E0C0
:1002300082E30E94C00060E083E30E94C00060E0AF
:1002400084E30E94C00060E085E30E94C00061E199
:100250008BE50E94C0006FE98BE70E94C00060E957
:100260008CE50E94C00060E28DE50E94C0006CE950
:100270008DE70E94C0006CE88FE70E94C00062E832
:100280008EE70E94C000C1E464E08C2F0E94C00091
:1002900062E381E08C0F0E94C000CE5FC935A1F7F8
:1002A00087EE93E00197F1F700C00000CF910C9426
:1002B000EA000E94A5010E94A50163E680E80E9471
:1002C000C0000E94EE0081E008958D3038F496E180
:1002D000899F802D11248C5F0C94A00080E00895EC
:1002E0008D3020F4880F8B5F0C94A00080E008957F
:1002F0008D3030F4825E0E94A000880F880F089530
:1003000080E00895CF93C82F84E10E9419028C2FBA
:100310000E9478010E94190285E10E9419028C2F27
:100320000E9465010E94190285E10E9419028C2F2A
:100330000E9470010E94190286E10E94190280E069
:100340000E94A000CF910C9419020E94080280E242
:100350008093B8001092B900ECEBF0E080818460EB
:100360008083089582E08A95F1F700C084EA809343
:10037000BC008091BC0087FFFCCF8091B900887FD2
:100380008830D9F7089584EA8093BC008091BC003E
:1003900087FFFCCF8091B900887F8031D9F708951D
:1003A00084E98093BC008091BC0084FFFCCF089559
:1003B00017B88093BB0084E88093BC008091BC0098
:1003C00087FFFCCF8091B9008091B900089517B8DC
:1003D0008093BB0084E88093BC008091BC0087FFC1
:1003E000FCCF8091B900089590E197B9882311F06E
:1003F00084EC01C084E88093BC008091BC0087FF3E
:10040000FCCF8091B9008091B9008091BB00089524
:100410001092C50083E38093C400E0ECF0E080819B
:100420008D7F808388E18093C10086E08093C20045
:1004300008959091C00095FFFCCF8093C600089569
:100440008091C00087FF03C08091C600F9CF089556
:04045000F894FFCF4E
:00000001FF
