:100000000C9434000C944B000C9449000C9449005F
:100010000C9449000C9449000C9449000C9449003C
:100020000C9449000C9449000C9449000C9449002C
:100030000C9449000C9449000C9449000C9449001C
:100040000C9449000C9449000C9449000C9449000C
:100050000C9449000C9449000C9449000C944900FC
:100060000C9449000C94490011241FBECFEFD4E03A
:10007000DEBFCDBF11E0A0E0B1E0E2E2F5E002C0FA
:1000800005900D92A032B107D9F70E9478000C9428
:100090008F020C9400001F920F920FB60F92112442
:1000A0002F933F934F935F936F937F938F939F9380
:1000B000AF93BF93EF93FF93F8940E94F10078946D
:1000C000FF91EF91BF91AF919F918F917F916F9130
:1000D0005F914F913F912F910F900FBE0F901F9006
:1000E0001895E89AE9E6F0E0808180837894089595
:1000F00081E084B915B890E080E80FB6F894809359
:100100006100909361000FBE0E94E8010E9485018A
:100110000E9471000E9400020E946801882321F061
:1001200080E091E00E94080291E085B1892785B9BD
:100130002FE73AE186E0215030408040E1F700C0EF
:100140000000F3CF1F93CF93DF931F92CDB7DEB79D
:10015000182F0E94920184EB0E94B801812F0E9407
:10016000C7010E94A30185EB0E94C70180E00E94A5
:10017000D40189830E94B00189810F90DF91CF91D2
:100180001F9108951F93CF93DF931F92CDB7DEB7D2
:10019000182F69830E94920184EB0E94B801812F7D
:1001A0000E94C7016981862F0E94C7010F90DF91CD
:1001B000CF911F910C94B001CF93DF9381E00E9407
:1001C000A200C82FD0E0DC2FCC2780E00E94A20044
:1001D0009E01282BC901DF91CF9108959F700C9447
:1001E00034020E94DC000C94EE0060EC8EE50C946E
:1001F000C2006FEC8EE50C94C200CF9363E680E8FA
:100200000E94C20087EE93E00197F1F700C0000062
:100210000E94F50061E08BE20E94C20068E08CE27F
:100220000E94C20061E08DE20E94C20060E08EE2A6
:100230000E94C20061E08FE20E94C20061E080E3A0
:100240000E94C20062E081E30E94C20061E082E39A
:100250000E94C20060E083E30E94C20060E084E389
:100260000E94C20060E085E30E94C20061E18BE56C
:100270000E94C2006FE98BE70E94C20060E98CE532
:100280000E94C20060E28DE50E94C2006CE98DE729
:100290000E94C2006CE88FE70E94C20065E68EE70C
:1002A0000E94C200C1E466E98C2F0E94C20062E392
:1002B00081E08C0F0E94C200CE5FC935A1F787EEA6
:1002C00093E00197F1F700C00000CF910C94F90082
:1002D000CF930E9485010E94850163E680E80E9419
:1002E000C2008DE50E94A200C82F86E191E00E9425
:1002F00008028C2F0E941B0283E191E00E940802F9
:100300000E94FD0081E0CF9108950E94E80180E203
:100310008093B8001092B900ECEBF0E0808184602B
:100320008083089582E08A95F1F700C084EA809383
:10033000BC008091BC0087FFFCCF8091B900887F12
:100340008830D9F7089584EA8093BC008091BC007E
:1003500087FFFCCF8091B900887F8031D9F708955D
:1003600084E98093BC008091BC0084FFFCCF089599
:1003700017B88093BB0084E88093BC008091BC00D8
:1003800087FFFCCF8091B9008091B900089517B81C
:100390008093BB0084E88093BC008091BC0087FF01
:1003A000FCCF8091B900089590E197B9882311F0AE
:1003B00084EC01C084E88093BC008091BC0087FF7E
:1003C000FCCF8091B9008091B9008091BB00089565
:1003D0001092C50083E38093C400E0ECF0E08081DC
:1003E0008D7F808388E18093C10086E08093C20086
:1003F00008959091C00095FFFCCF8093C6000895AA
:100400008091C00087FF03C08091C600F9CF089596
:100410000F931F93CF938C01C0E0F801EC0FF11DF7
:100420008081882321F00E94F901CF5FF6CFCF9120
:100430001F910F910895CF93C82F64E60E946F0219
:10044000805D0E94F9012AE08C2F622F0E946F02CA
:10045000C92F0E946F0280E3890F0E94F90180E397
:100460008C0FCF910C94F9010F931F93CF93DF93CF
:100470008C0160E177E20E947B0280E3860F0E949C
:10048000F901C80168EE73E00E947B02CB01CAE06B
:10049000D0E0BE010E947B02805D0E94F901C8018C
:1004A00064E670E00E947B02CB01BE010E947B02E9
:1004B000805D0E94F901C801BE010E947B02182FD5
:1004C000CB01BE010E947B02805D0E94F90180E3A6
:1004D000810FDF91CF911F910F910C94F901991B1E
:1004E00079E004C0991F961708F0961B881F7A952B
:1004F000C9F780950895AA1BBB1B51E107C0AA1F2D
:10050000BB1FA617B70710F0A61BB70B881F991FB4
:100510005A95A9F780959095BC01CD010895F8945E
:02052000FFCF0B
:100522000D0A4D50523132313A20696E69742829D0
:10053200204F4B0D0A000D0A434454203D20000079
:00000001FF
