:100000000C9434000C9453000C9451000C94510047
:100010000C9451000C9451000C9451000C9451001C
:100020000C9451000C9451000C9451000C9451000C
:100030000C9451000C9451000C9451000C945100FC
:100040000C9451000C9451000C9451000C945100EC
:100050000C9451000C9451000C9451000C945100DC
:100060000C9451000C94510011241FBECFEFD4E02A
:10007000DEBFCDBF11E0A0E0B1E0E2E9F4E002C0F4
:1000800005900D92A433B107D9F721E0A4E3B1E0C4
:1000900001C01D92A633B207E1F70E948D000C94B7
:1000A00047020C9400001F920F920FB60F9211247A
:1000B0002F933F934F935F936F937F938F939F9370
:1000C000AF93BF93EF93FF930E9445019093350147
:1000D00080933401289A2FE986E891E021508040EE
:1000E0009040E1F700C000002898FF91EF91BF9188
:1000F000AF919F918F917F916F915F914F913F91C0
:100100002F910F900FBE0F901F901895E89AE9E677
:10011000F0E080818E7F808308958FEF84B990E036
:1001200080E80FB6F89480936100909361000FBE51
:100130000E941C0280E091E00E9434020E94CE01E5
:100140000E94BA01882341F10E944F010E9486005B
:1001500020E030E0109235011092340178948091C3
:100160003401909135018217930771F08091340129
:10017000909135012C9AE9EFF0E03197F1F700C04A
:100180000000F8949C01E6CF2C98E9EFF0E031975D
:10019000F1F700C00000F6CF88E191E00E94340240
:1001A00080E090E00895CF93C82F0E94DB0184EB9C
:1001B0000E94E9018C2F0E94E9010E94DB0185EB7E
:1001C0000E94E90181E00E94F4010E940F02C82F01
:1001D00082E30E9412020E94E4018C2FCF910895C5
:1001E0000F931F93CF93DF931F92CDB7DEB7182FD6
:1001F00069830E94DB0184EB0E94E901812F0E9448
:10020000E9010E94DB0185EB0E94E90181E00E9487
:10021000F4010E940F02082F10E082E30E941202F4
:1002200084EB0E94E9016981862F0E94E90180E048
:100230000E94F4010E940F028F71182B0E94E401AA
:10024000C8010F90DF91CF911F910F9108951F93D7
:10025000CF93DF931F92CDB7DEB7182F69830E942B
:10026000DB0184EB0E94E901812F0E94E901698191
:10027000862F0E94E9010F90DF91CF911F910C947E
:10028000E40161E080E00C94F0000C94410160EC2A
:100290008EE50C9427016FEC8EE50C942701CF932B
:1002A00063E680E80E94270189EF90E00197F1F76B
:1002B00000C000000E94470161E08BE20E9427011C
:1002C00068E08CE20E94270161E08DE20E94270134
:1002D00060E08EE20E94270161E08FE20E94270128
:1002E00061E080E30E94270162E081E30E94270130
:1002F00061E082E30E94270160E083E30E9427011E
:1003000060E084E30E94270160E085E30E9427010A
:1003100061E18BE50E9427016FE98BE70E942701CD
:1003200060E98CE50E94270160E28DE50E942701CB
:100330006CE98DE70E9427016CE88FE70E94270196
:1003400065E68EE70E942701C1E466E98C2F0E94D2
:10035000270162E381E08C0F0E942701CE5FC9353F
:10036000A1F789EF90E00197F1F700C00000CF916D
:100370000C944B010E94CE0163E680E80E942701A5
:1003800082E30E9412028DE50E94D300843221F4A0
:100390000E944F0181E0089580E0089580E28093FB
:1003A000B800E9EBF0E080818083ECEBF0E0808145
:1003B0008460808308953C9A84EA8093BC00809195
:1003C000BC0087FFFCCF08953C9A84E98093BC0071
:1003D00008953C9A8093BB0084E88093BC00809190
:1003E000BC0087FFFCCF08953C98882369F080917A
:1003F000BC008B70846C8093BC008091BC0087FF34
:10040000FCCF8091BB0008958091BC008B70846804
:100410008093BC008091BC0087FFFCCFF2CF80911D
:10042000BB00089590E02091BC0027FD04C0981700
:1004300011F09F5FF8CF08951092C5008CE0809373
:10044000C400E0ECF0E080818260808388E18093EA
:10045000C10086E08093C20008959091C00095FF8E
:10046000FCCF8093C60008950F931F93CF938C0108
:10047000C0E0F801EC0FF11D8081882321F00E947B
:100480002D02CF5FF6CFCF911F910F910895F89471
:02049000FFCF9C
:100492000D0A202D2D2D204D505231323120746500
:1004A2007374202D2D0D0A000D0A202D2D206D7044
:1004B20072313231206E6F6E2072696C65766174B2
:0404C2006F0D0A00B0
:00000001FF
