:100000000C9434000C9449000C9449000C94490061
:100010000C9449000C9449000C9449000C9449003C
:100020000C9449000C9449000C9449000C9449002C
:100030000C9449000C9449000C9449000C9449001C
:100040000C9449000C9449000C9449000C9449000C
:100050000C9449000C9449000C9449000C944900FC
:100060000C9449000C94490011241FBECFEFD4E03A
:10007000DEBFCDBF14E0A0E0B1E0E4EFF4E002C0E9
:1000800005900D92A631B107D9F70E944B000C9450
:1000900078020C94000081E084B915B890E080E803
:1000A0000FB6F89480936100909361000FBE0E9498
:1000B00020020E94380280E091E00E9440028FE01E
:1000C00091E00E9440020E9466018FE191E00E944F
:1000D00040028EE291E00E94400280E491E00E94A2
:1000E00040020E94430187E591E00E94400291E0B6
:1000F00085B1892785B92FE73AE186E02150304064
:100100008040E1F700C000002FE73AE186E021508F
:1001100030408040E1F700C00000EACFCF93C82F05
:100120008AE691E00E9440020E94750184EB0E94E1
:10013000A3018C2F0E94C8010E94860185EB0E94BA
:10014000C80180E00E94E601C82F0E94970182E862
:1001500091E00E9440028C2FCF9108951F93CF937E
:10016000DF931F92CDB7DEB7182F8DE991E0698339
:100170000E9440020E94750184EB0E94A301812F1E
:100180000E94C8016981862F0E94C8010F90DF91EB
:10019000CF911F910C94970160EC8EE50C94AE000A
:1001A0006FEC8EE50C94AE00CF9386EB91E00E944D
:1001B000400263E680E80E94AE0087EE93E001977C
:1001C000F1F700C000000E94CC0061E08BE20E94C9
:1001D000AE0068E08CE20E94AE0061E08DE20E9419
:1001E000AE0060E08EE20E94AE0061E08FE20E940D
:1001F000AE0061E080E30E94AE0062E081E30E9415
:10020000AE0061E082E30E94AE0060E083E30E9402
:10021000AE0060E084E30E94AE0060E085E30E94EF
:10022000AE0061E18BE50E94AE006FE98BE70E94B2
:10023000AE0060E98CE50E94AE0060E28DE50E94B0
:10024000AE006CE98DE70E94AE006CE88FE70E947B
:10025000AE0065E68EE70E94AE00C1E466E98C2F31
:100260000E94AE0062E381E08C0F0E94AE00CE5F80
:10027000C935A1F787EE93E00197F1F700C00000C0
:10028000CF910C94D0008FEC91E00E9440020E942C
:10029000660187EE91E00E94400263E680E80E94DA
:1002A000AE008FEF91E00E9440028BE192E00E944D
:1002B00040028DE50E948E000E94530282E891E088
:1002C0000E9440020E94D40081E0089587E392E0FA
:1002D0000E94400280E28093B8001092B900ECEBDB
:1002E000F0E080818460808308958FE492E00E9432
:1002F000400284EA8093BC008091BC0087FFFCCF61
:100300008091B900887F8830D9F7089588E692E017
:100310000E94400284EA8093BC008091BC0087FF69
:10032000FCCF8091B900887F8031D9F7089583E8A8
:1003300092E00E94400284E98093BC008091BC005E
:1003400084FFFCCF0895CF93C82F8BE992E00E94E1
:10035000400217B8C093BB0084E88093BC00809132
:10036000BC0087FFFCCF8091B900887F883121F4E1
:1003700086EB92E00E9440028091B900887F803431
:1003800029F487ED92E0CF910C944002CF9108952B
:10039000CF93C82F88EF92E00E94400217B8C09315
:1003A000BB0084E88093BC008091BC0087FFFCCF39
:1003B0008091B900887F883221F483E193E00E9424
:1003C000400283E393E0CF910C944002CF93C82F77
:1003D00081E593E00E94400280E187B9CC2331F0AF
:1003E0008CE693E00E94400284EC05C083E893E031
:1003F0000E94400284E88093BC008091BC0087FD8D
:1004000005C08BE993E00E944002F7CF8091B900CC
:10041000887F803521F487EB93E00E944002809131
:10042000B900887F883521F487ED93E00E9440026F
:1004300088EF93E00E9440028091BB00CF91089525
:100440001092C50083E38093C400E0ECF0E080816B
:100450008D7F808388E18093C10086E08093C20015
:1004600008959091C00095FFFCCF8093C600089539
:100470008091C00087FF03C08091C600F9CF089526
:100480000F931F93CF938C01C0E0F801EC0FF11D87
:100490008081882321F00E943102CF5FF6CFCF9177
:1004A0001F910F910895CF93C82F64E60E946C02AC
:1004B000805D0E9431022AE08C2F622F0E946C0224
:1004C000C92F0E946C0280E3890F0E94310280E3F1
:1004D0008C0FCF910C943102991B79E004C0991FC5
:1004E000961708F0961B881F7A95C9F7809508958E
:0404F000F894FFCFAE
:1004F4002D2D2D2054455354202D2D2D0D0A000D46
:100504000A202D2D20384D487A202D2D0D0A000D5E
:100514000A202D2D20493243202D2D0D0A000D0ACD
:10052400202D2D204D5052313231202D2D0D0A0019
:100534000D0A09203E3E20636869616D6F20696E73
:10054400697428290D0A000D0A09203E3E20696EAF
:1005540069742829204F4B0D0A000D0A0909203E11
:100564003E206D70723132315F7265616428290DED
:100574000A000D0A0909203E3E206D7072313231A5
:100584005F726561642829204F4B0D0A000D0A092A
:1005940009203E3E206D70723132315F777269748A
:1005A4006528290D0A000D0A0909203E3E206D70B8
:1005B400723132315F726573657428290D0A000D3A
:1005C4000A0909203E3E206D70723132315F696E36
:1005D400697428290D0A000D0A0909203E3E206984
:1005E40032635F696E69742829204F4B0D0A000D30
:1005F4000A0909203E3E206D70723132315F7772F4
:100604006974652829204F4B0D0A000D0A09092039
:100614003E3E2070726F766F20636F6E20696C208F
:10062400726561640D0A000D0A090909202D2D2D3A
:100634003E206932635F696E697428290D0A000DD2
:100644000A090909202D2D2D3E206932635F737438
:1006540061727428290D0A000D0A090909202D2D3B
:100664002D3E206932635F72657374617274282948
:100674000D0A000D0A090909202D2D2D3E2069328D
:10068400635F73746F7028290D0A000D0A09090944
:10069400202D2D2D3E206932635F61646472657381
:1006A4007328290D0A000D0A090909202D2D2D3E54
:1006B40020534C412B572028742920652041434B5B
:1006C400202872290D0A000D0A090909202D2D2D53
:1006D4003E20534C412B522028742920652041434D
:1006E4004B202872290D0A000D0A090909202D2D15
:1006F4002D3E206932635F74785F646174612829D8
:100704000D0A000D0A090909202D2D2D3E206461D2
:1007140074612028742920652041434B20287229C4
:100724000D0A000D0A090909202D2D2D3E206932DC
:10073400635F74785F646174612829204F4B0D0AEC
:10074400000D0A090909202D2D2D3E206932635F11
:1007540072785F6461746128290D0A000D0A090921
:100764000909203D3D3D3E2061636B20747275652F
:100774000D0A000D0A09090909203D3D3D3E20618D
:10078400636B2066616C73650D0A000D0A09090923
:1007940009203D3D3D3E206173706574746F2054A3
:1007A40057494E540D0A000D0A090909202D2D2D13
:1007B4003E20646174612028722920652041434BE6
:1007C400202872290D0A000D0A090909202D2D2D52
:1007D4003E2064617461202872292065204E4143C3
:1007E4004B202872290D0A000D0A090909202D2D14
:1007F4002D3E206932635F72785F646174612829D9
:06080400204F4B0D0A001D
:00000001FF
