:100000000C9434000C9440000C943E000C943E0080
:100010000C943E000C943E000C943E000C943E0068
:100020000C943E000C943E000C943E000C943E0058
:100030000C943E000C943E000C943E000C943E0048
:100040000C943E000C943E000C943E000C943E0038
:100050000C943E000C943E000C943E000C943E0028
:100060000C943E000C943E0011241FBECFEFD4E050
:10007000DEBFCDBF0E946C000C9447020C940000C0
:100080001F920F920FB60F9211242F933F934F930D
:100090005F936F937F938F939F93AF93BF93EF93F0
:1000A000FF93F8940E940D017894FF91EF91BF9116
:1000B000AF919F918F917F916F915F914F913F9100
:1000C0002F910F900FBE0F901F901895E89AE9E6B8
:1000D000F0E0808180830895CF9381E084B915B8E2
:1000E00090E080E80FB6F8948093610090936100EF
:1000F0000FBE0E9427020E94C4010E9466000E9457
:100100003F020E948C018823D1F0C1E02FE38DE0F3
:1001100093E0215080409040E1F700C0000080E073
:100120000E94B10185B18C2785B92FE78AE196E05D
:10013000215080409040E1F700C00000E7CF80E010
:1001400090E0CF9108951F93CF93DF931F92CDB787
:10015000DEB7182F0E94D10184EB0E94F701812F96
:100160000E9406020E94E20185EB0E94060280E0E6
:100170000E94130289830E94EF0189810F90DF9111
:10018000CF911F9108950F931F93CF93DF931F92E9
:10019000CDB7DEB7182F69830E94D10184EB0E948E
:1001A0000602812F0E9406020E94E20185EB0E9456
:1001B000060281E00E941302082F10E084EB0E94E7
:1001C00006026981862F0E94060280E00E941302C7
:1001D0008F71182B0E94EF01C8010F90DF91CF9112
:1001E0001F910F9108951F93CF93DF931F92CDB767
:1001F000DEB7182F69830E94D10184EB0E94F701BA
:10020000812F0E9406026981862F0E9406020F90AC
:10021000DF91CF911F910C94EF0180E00E94A30029
:100220000E94380281E00E94A3008295807F0C9496
:10023000380260EC8EE50C94F3006FEC8EE50C94C4
:10024000F300CF9363E680E80E94F30087EE93E02B
:100250000197F1F700C000000E94190161E08BE2F4
:100260000E94F30068E08CE20E94F30061E08DE2FE
:100270000E94F30060E08EE20E94F30061E08FE2F2
:100280000E94F30061E080E30E94F30062E081E3FA
:100290000E94F30061E082E30E94F30060E083E3E8
:1002A0000E94F30060E084E30E94F30060E085E3D5
:1002B0000E94F30061E18BE50E94F3006FE98BE798
:1002C0000E94F30060E98CE50E94F30060E28DE596
:1002D0000E94F3006CE98DE70E94F3006CE88FE761
:1002E0000E94F30065E68EE70E94F300C1E466E930
:1002F0008C2F0E94F30062E381E08C0F0E94F300D8
:10030000CE5FC935A1F787EE93E00197F1F700C002
:100310000000CF910C941D010E94C4010E94C401F1
:1003200063E680E80E94F3000E94210181E00895C5
:100330008D3038F4682F660F6B5F880F8C5F0C94DC
:10034000C30080E090E008958D3040F4825E0E940A
:10035000A30024E0829FC0011124089580E090E072
:100360000895CF93C82F84E10E9438028C2F0E94F9
:10037000A4010E94380285E10E9438028C2F0E945D
:100380009801CF910C9438020E94270280E280935A
:10039000B8001092B900ECEBF0E0808184608083BB
:1003A000089582E08A95F1F700C084EA8093BC004A
:1003B0008091BC0087FFFCCF8091B900887F883096
:1003C000D9F7089584EA8093BC008091BC0087FF30
:1003D000FCCF8091B900887F8031D9F7089584E9F6
:1003E0008093BC008091BC0084FFFCCF089517B8B7
:1003F0008093BB0084E88093BC008091BC0087FFA1
:10040000FCCF8091B9008091B900089517B880930E
:10041000BB0084E88093BC008091BC0087FFFCCFC8
:100420008091B900089590E197B9882311F084EC88
:1004300001C084E88093BC008091BC0087FFFCCFA2
:100440008091B9008091B9008091BB00089510920D
:10045000C50083E38093C400E0ECF0E080818D7FF1
:10046000808388E18093C10086E08093C200089574
:100470009091C00095FFFCCF8093C60008958091B5
:10048000C00087FF03C08091C600F9CF0895F8949B
:02049000FFCF9C
:00000001FF
