:100000000C9434000C944B000C9449000C9449005F
:100010000C9449000C9449000C9449000C9449003C
:100020000C9449000C9449000C9449000C9449002C
:100030000C9449000C9449000C9449000C9449001C
:100040000C9449000C9449000C9449000C9449000C
:100050000C9449000C9449000C9449000C944900FC
:100060000C9449000C94490011241FBECFEFD4E03A
:10007000DEBFCDBF11E0A0E0B1E0EAE6F4E002C0EF
:1000800005900D92A032B107D9F70E9478000C9428
:1000900033020C9400001F920F920FB60F9211249E
:1000A0002F933F934F935F936F937F938F939F9380
:1000B000AF93BF93EF93FF93F8940E94DC00789482
:1000C000FF91EF91BF91AF919F918F917F916F9130
:1000D0005F914F913F912F910F900FBE0F901F9006
:1000E0001895E89AE9E6F0E0808180837894089595
:1000F00081E084B915B890E080E80FB6F894809359
:100100006100909361000FBE0E94DB010E947801A4
:100110000E9471000E94F3010E945B01882321F07C
:1001200080E091E00E94FB0191E085B1892785B9CB
:100130002FE73AE186E0215030408040E1F700C0EF
:100140000000F3CF1F93CF93DF931F92CDB7DEB79D
:10015000182F0E94850184EB0E94AB01812F0E9421
:10016000BA010E94960185EB0E94BA0180E00E94CC
:10017000C70189830E94A30189810F90DF91CF91EC
:100180001F9108951F93CF93DF931F92CDB7DEB7D2
:10019000182F69830E94850184EB0E94AB01812F97
:1001A0000E94BA016981862F0E94BA010F90DF91E7
:1001B000CF911F910C94A30180E00E94A2000E94A5
:1001C000EC0181E00E94A2008295807F0C94EC01FA
:1001D00060EC8EE50C94C2006FEC8EE50C94C200CE
:1001E000CF9363E680E80E94C20087EE93E0019718
:1001F000F1F700C000000E94E80061E08BE20E947D
:10020000C20068E08CE20E94C20061E08DE20E94C0
:10021000C20060E08EE20E94C20061E08FE20E94B4
:10022000C20061E080E30E94C20062E081E30E94BC
:10023000C20061E082E30E94C20060E083E30E94AA
:10024000C20060E084E30E94C20060E085E30E9497
:10025000C20061E18BE50E94C2006FE98BE70E945A
:10026000C20060E98CE50E94C20060E28DE50E9458
:10027000C2006CE98DE70E94C2006CE88FE70E9423
:10028000C20065E68EE70E94C200C1E466E98C2FD9
:100290000E94C20062E381E08C0F0E94C200CE5F28
:1002A000C935A1F787EE93E00197F1F700C0000090
:1002B000CF910C94EC00CF930E9478010E947801BA
:1002C00063E680E80E94C2008DE50E94A200C82F6C
:1002D00086E191E00E94FB018C2F0E940E0283E1D7
:1002E00091E00E94FB010E94F00081E0CF9108950F
:1002F0000E94DB0180E28093B8001092B900ECEB21
:10030000F0E0808184608083089582E08A95F1F72F
:1003100000C084EA8093BC008091BC0087FFFCCFC2
:100320008091B900887F8830D9F7089584EA809356
:10033000BC008091BC0087FFFCCF8091B900887F12
:100340008031D9F7089584E98093BC008091BC0086
:1003500084FFFCCF089517B88093BB0084E8809396
:10036000BC008091BC0087FFFCCF8091B9008091D8
:10037000B900089517B88093BB0084E88093BC004F
:100380008091BC0087FFFCCF8091B900089590E177
:1003900097B9882311F084EC01C084E88093BC00F5
:1003A0008091BC0087FFFCCF8091B9008091B9009B
:1003B0008091BB0008951092C50083E38093C40030
:1003C000E0ECF0E080818D7F808388E18093C10044
:1003D00086E08093C20008959091C00095FFFCCF05
:1003E0008093C60008958091C00087FF03C080916C
:1003F000C600F9CF08950F931F93CF938C01C0E0EF
:10040000F801EC0FF11D8081882321F00E94EC019E
:10041000CF5FF6CFCF911F910F910895CF93C82F43
:1004200064E60E942702805D0E94EC012AE08C2F86
:10043000622F0E942702C92F0E94270280E3890FA2
:100440000E94EC0180E38C0FCF910C94EC01991B7E
:1004500079E004C0991F961708F0961B881F7A95BB
:0A046000C9F780950895F894FFCFC6
:10046A000D0A4D50523132313A20696E6974282989
:10047A00204F4B0D0A000D0A434454203D20000032
:00000001FF
