:100000000C9434000C9449000C9449000C94490061
:100010000C9449000C9449000C9449000C9449003C
:100020000C9449000C9449000C9449000C9449002C
:100030000C9449000C9449000C9449000C9449001C
:100040000C9449000C9449000C9449000C9449000C
:100050000C9449000C9449000C9449000C944900FC
:100060000C9449000C94490011241FBECFEFD4E03A
:10007000DEBFCDBF13E0A0E0B1E0E2E7F4E002C0F4
:1000800005900D92A835B107D9F70E944B000C944A
:1000900037020C94000081E084B915B890E080E844
:1000A0000FB6F89480936100909361000FBE0E9498
:1000B000DF010E94F70180E091E00E94FF018FE0E4
:1000C00091E00E94FF010E9464018FE191E00E9493
:1000D000FF018EE291E00E94FF0180E491E00E9426
:1000E000FF010E94410187E591E00E94FF0191E03C
:1000F00085B1892785B92FE73AE186E02150304064
:100100008040E1F700C000002FE73AE186E021508F
:1001100030408040E1F700C00000EACFCF93C82F05
:100120008AE691E00E94FF010E94730184EB0E9425
:1001300090018C2F0E94A20185EB0E94A20180E019
:100140000E94B701C82F0E94840182E891E00E94BA
:10015000FF018C2FCF9108951F93CF93DF931F92B0
:10016000CDB7DEB7182F8DE991E069830E94FF01BA
:100170000E94730184EB0E949001812F0E94A201D2
:100180006981862F0E94A2010F90DF91CF911F916C
:100190000C94840160EC8EE50C94AC006FEC8EE561
:1001A0000C94AC00CF9386EB91E00E94FF0163E6D4
:1001B00080E80E94AC0087EE93E00197F1F700C061
:1001C00000000E94CA0061E08BE20E94AC0068E07F
:1001D0008CE20E94AC0061E08DE20E94AC0060E025
:1001E0008EE20E94AC0061E08FE20E94AC0061E010
:1001F00080E30E94AC0062E081E30E94AC0061E019
:1002000082E30E94AC0060E083E30E94AC0060E007
:1002100084E30E94AC0060E085E30E94AC0061E1F1
:100220008BE50E94AC006FE98BE70E94AC0060E9AF
:100230008CE50E94AC0060E28DE50E94AC006CE9A8
:100240008DE70E94AC006CE88FE70E94AC0065E689
:100250008EE70E94AC00C1E466E98C2F0E94AC00DE
:1002600062E381E08C0F0E94AC00CE5FC935A1F73C
:1002700087EE93E00197F1F700C00000CF910C9456
:10028000CE008FEC91E00E94FF010E94640187EE96
:1002900091E00E94FF0163E680E80E94AC008FEFCE
:1002A00091E00E94FF018BE192E00E94FF018DE549
:1002B0000E948E000E94120282E891E00E94FF01DB
:1002C0000E94D20081E0089587E392E00E94FF013E
:1002D00080E28093B8001092B900ECEBF0E08081EE
:1002E0008460808308958FE492E00E94FF0184EA95
:1002F0008093BC008091BC0087FFFCCF8091B90047
:10030000887F8830D9F7089588E692E00E94FF013F
:1003100084E98093BC008091BC0084FFFCCF0895E9
:10032000CF93C82F80E892E00E94FF0117B8C093D6
:10033000BB0084E88093BC008091BC0087FFFCCFA9
:10034000CF910895CF93C82F8BE992E00E94FF01CF
:1003500017B8C093BB0084E88093BC008091BC00B8
:1003600087FFFCCF86EB92E0CF910C94FF01CF93F7
:10037000C82F84ED92E00E94FF0180E187B9CC2371
:1003800031F08FEE92E00E94FF0184EC05C086E020
:1003900093E00E94FF0184E88093BC008091BC0040
:1003A00087FD05C08EE193E00E94FF01F7CF8AE34D
:1003B00093E00E94FF018091BB00CF9108951092BD
:1003C000C50083E38093C400E0ECF0E080818D7F82
:1003D000808388E18093C10086E08093C200089505
:1003E0009091C00095FFFCCF8093C6000895809146
:1003F000C00087FF03C08091C600F9CF08950F9316
:100400001F93CF938C01C0E0F801EC0FF11D8081A8
:10041000882321F00E94F001CF5FF6CFCF911F918A
:100420000F910895CF93C82F64E60E942B02805D40
:100430000E94F0012AE08C2F622F0E942B02C92F0C
:100440000E942B0280E3890F0E94F00180E38C0F51
:10045000CF910C94F001991B79E004C0991F961775
:1004600008F0961B881F7A95C9F780950895F8942F
:02047000FFCFBC
:100472002D2D2D2054455354202D2D2D0D0A000DC8
:100482000A202D2D20384D487A202D2D0D0A000DE1
:100492000A202D2D20493243202D2D0D0A000D0A50
:1004A200202D2D204D5052313231202D2D0D0A009C
:1004B2000D0A09203E3E20636869616D6F20696EF6
:1004C200697428290D0A000D0A09203E3E20696E32
:1004D20069742829204F4B0D0A000D0A0909203E94
:1004E2003E206D70723132315F7265616428290D70
:1004F2000A000D0A0909203E3E206D707231323128
:100502005F726561642829204F4B0D0A000D0A09AC
:1005120009203E3E206D70723132315F777269740C
:100522006528290D0A000D0A0909203E3E206D703A
:10053200723132315F726573657428290D0A000DBC
:100542000A0909203E3E206D70723132315F696EB8
:10055200697428290D0A000D0A0909203E3E206906
:1005620032635F696E69742829204F4B0D0A000DB2
:100572000A0909203E3E206D70723132315F777276
:100582006974652829204F4B0D0A000D0A090920BC
:100592003E3E2070726F766F20636F6E20696C2012
:1005A200726561640D0A000D0A090909202D2D2DBD
:1005B2003E206932635F696E697428290D0A000D55
:1005C2000A090909202D2D2D3E206932635F7374BB
:1005D20061727428290D0A000D0A090909202D2DBE
:1005E2002D3E206932635F73746F7028290D0A00F3
:1005F2000D0A090909202D2D2D3E206932635F6104
:1006020064647265737328290D0A000D0A090909C9
:10061200202D2D2D3E206932635F74785F646174F2
:100622006128290D0A000D0A090909202D2D2D3EE8
:10063200206932635F74785F646174612829204F96
:100642004B0D0A000D0A090909202D2D2D3E2069A6
:1006520032635F72785F6461746128290D0A000D4C
:100662000A09090909203D3D3D3E2061636B207462
:100672007275650D0A000D0A09090909203D3D3D03
:100682003E2061636B2066616C73650D0A000D0A82
:1006920009090909203D3D3D3E206173706574746E
:1006A2006F205457494E540D0A000D0A09090920BA
:1006B2002D2D2D3E206932635F72785F6461746113
:0806C2002829204F4B0D0A000E
:00000001FF
