:100000000C9434000C944B000C9449000C9449005F
:100010000C9449000C9449000C9449000C9449003C
:100020000C9449000C9449000C9449000C9449002C
:100030000C9449000C9449000C9449000C9449001C
:100040000C9449000C9449000C9449000C9449000C
:100050000C9449000C9449000C9449000C944900FC
:100060000C9449000C94490011241FBECFEFD4E03A
:10007000DEBFCDBF11E0A0E0B1E0EAEDF4E002C0E8
:1000800005900D92AE32B107D9F70E947C000C9416
:100090006B020C9400001F920F920FB60F92112466
:1000A0002F933F934F935F936F937F938F939F9380
:1000B000AF93BF93EF93FF9380E091E00E943302F0
:1000C000F8940E941C017894FF91EF91BF91AF9139
:1000D0009F918F917F916F915F914F913F912F9160
:1000E0000F900FBE0F901F901895E89AE9E6F0E088
:1000F000808180837894089581E084B915B890E078
:1001000080E80FB6F89480936100909361000FBE71
:100110000E9413020E94B0010E9475000E942B02EF
:100120000E949301882321F08AE091E00E9433022B
:1001300091E085B1892785B92FE73AE186E0215022
:1001400030408040E1F700C00000F3CF1F93CF9311
:10015000DF931F92CDB7DEB7182F0E94BD0184EB4D
:100160000E94E301812F0E94F2010E94CE0185EBE3
:100170000E94F20180E00E94FF0189830E94DB015E
:1001800089810F90DF91CF911F9108951F93CF9395
:10019000DF931F92CDB7DEB7182F69830E94BD0190
:1001A00084EB0E94E301812F0E94F2016981862F76
:1001B0000E94F2010F90DF91CF911F910C94DB010F
:1001C000CF93DF9381E00E94A600C82FD0E0DC2F00
:1001D000CC2780E00E94A6009E01282BC901DF9158
:1001E000CF910895EF92FF920F931F93CF93DF93D8
:1001F0008C01CBE0D0E0EE24E394F12C97010C2E9F
:1002000002C0220F331F0A94E2F720233123232B4D
:1002100019F080E291E002C082E291E00E94330294
:10022000219760F78DE191E0DF91CF911F910F91C0
:10023000FF90EF900C9433020E94E0000C94F200C7
:1002400060EC8EE50C94C6006FEC8EE50C94C60055
:10025000CF9363E680E80E94C60087EE93E00197A3
:10026000F1F700C000000E94200161E08BE20E94D3
:10027000C60068E08CE20E94C60061E08DE20E9448
:10028000C60060E08EE20E94C60061E08FE20E943C
:10029000C60061E080E30E94C60062E081E30E9444
:1002A000C60061E082E30E94C60060E083E30E9432
:1002B000C60060E084E30E94C60060E085E30E941F
:1002C000C60061E18BE50E94C6006FE98BE70E94E2
:1002D000C60060E98CE50E94C60060E28DE50E94E0
:1002E000C6006CE98DE70E94C6006CE88FE70E94AB
:1002F000C60065E68EE70E94C600C1E466E98C2F61
:100300000E94C60062E381E08C0F0E94C600CE5FAF
:10031000C935A1F787EE93E00197F1F700C000001F
:10032000CF910C942401CF930E94B0010E94B001A0
:1003300063E680E80E94C6008DE50E94A600C82FF3
:1003400084E291E00E9433028C2F0E9446028DE1EC
:1003500091E00E9433020E94280181E0CF9108952C
:100360000E94130280E28093B8001092B900ECEB77
:10037000F0E0808184608083089582E08A95F1F7BF
:1003800000C084EA8093BC008091BC0087FFFCCF52
:100390008091B900887F8830D9F7089584EA8093E6
:1003A000BC008091BC0087FFFCCF8091B900887FA2
:1003B0008031D9F7089584E98093BC008091BC0016
:1003C00084FFFCCF089517B88093BB0084E8809326
:1003D000BC008091BC0087FFFCCF8091B900809168
:1003E000B900089517B88093BB0084E88093BC00DF
:1003F0008091BC0087FFFCCF8091B900089590E107
:1004000097B9882311F084EC01C084E88093BC0084
:100410008091BC0087FFFCCF8091B9008091B9002A
:100420008091BB0008951092C50083E38093C400BF
:10043000E0ECF0E080818D7F808388E18093C100D3
:1004400086E08093C20008959091C00095FFFCCF94
:100450008093C60008958091C00087FF03C08091FB
:10046000C600F9CF08950F931F93CF938C01C0E07E
:10047000F801EC0FF11D8081882321F00E942402F5
:10048000CF5FF6CFCF911F910F910895CF93C82FD3
:1004900064E60E945F02805D0E9424022AE08C2FA5
:1004A000622F0E945F02C92F0E945F0280E3890FC2
:1004B0000E94240280E38C0FCF910C942402991B9C
:1004C00079E004C0991F961708F0961B881F7A954B
:0A04D000C9F780950895F894FFCF56
:1004DA000D0A746F63636F0D0A000D0A4D50523195
:1004EA0032313A20696E69742829204F4B0D0A006F
:0E04FA00310030000D0A434454203D20000024
:00000001FF
